:400000000080002011000000390300003903000008B5044B1A6803F53F5302331A6000F0A9F900BFFA46004010B5054C237833B9044B13B10448AFF300800123237010BD5D
:400040004881FF1F00000000DC0E0000084B10B51BB108490848AFF300800848036803B910BD074B002BFBD0BDE81040184700BF000000004C81FF1FDC0E0000C880FF1F2E
:400080000000000010B500F0FFF962B62B4B2C4A2C492D4800F0F4FA2B4800F023FA00F001FA0246002832D0782841D072281BD079280DD0672823D1244800F013FA00F05A
:4000C00053FA01280CBF0020012000F041FA1EE01F4800F007FA00F033FA01280CBF0020012000F021FA12E01A4800F0FBF900F015FA01280CBF0020012000F003FA06E061
:400100001549114800F0BCFA0F4800F0EBF900F047FA04460028C2D100F03AFA01280CBF2046012000F028FA642000F04DFAB6E70A4800F0D7F9002010BD00BFE00E00004C
:40014000AD0F00001B1000006481FF1F3A100000521000006B100000811000002E100000F8B572B65D4A5E4D1378002443F004031370062606FB045300219A881868013490
:4001800000F076FA082CF5D15648574D002450F8041F04F1105303F11E0221F0FF061F33C9B20B4452005B0002329A4206D012F8027C12F801EC07F806E0F5E7A8420C4469
:4001C000E5D14A4A4A4C13784A4D43F002031370137C494F43F0020313742378A2F5863243F040032370413A1378002643F010031370424B03CBC2F8300EC2F8341E03CB47
:40020000C2F8500DC2F8541D93E8070003C53C4B2A803C4A192507CA03C31A803A4A0321137843F008031370384B61221A70A3F5F06318221D809A70022283F88022082251
:400240004FF040231A7083F80012314B31491B78DBB20B70304B1A8041F2512223F8022C3B784FF4F07003F0010343EA460600F0C3F9013D06F003062FD0032EF0D1274B1E
:400280004FF480721A80264907221A70482000220A7088701A70022203F8032C214A224D137843F001031370184B81221A7003F5F723012204331A701C4B1D4A1B78DBB2E6
:4002C00003F007011B09117053701A4B44221A7094E80F0007C52B80F8BDFEE7E8460040AF100000FCFFFF473800004803500140A04300402051004025420040E40200487F
:400300006051004000030048224300400048004008010049A1460040224200400440004006400040A2430040B0430040CF0100496E5800407658004008B500F06DF903682A
:400340000C2B00D1FEE7FEE7084908B50B68084A1844821A802A01DC086005E000F05CF90C2303604FF0FF33184608BDCC80FF1FF881FF1F80B51148114B0025C0B1A3F18C
:40038000100192C922460439161BB74204D051F8046F42F8046BF7E7114653F8046C8C1AA64202D041F8045BF9E701381033E5E700F038F9FFF766FEFEE700BF0100000099
:4003C00048110000104A114B10B41A60104A114C1368114843F4007313600023032B98BF54F823204FEA830188BF0C4A0133302B4250F3D10A4B1A780A4B1A700A4B064A27
:4004000010BC1A60FFF7ACBE0004FA050CED00E014ED00E0000000000080FF1F39030000BC760040C080FF1F08ED00E0074B72221A70202203F8012C062203F8612C4722E7
:4004400003F8512C00229A70704700BF8D64004010B500F0D9F804460A4A137843F02003137012F8013C43F0100302F8013C937843F01003937000F09BF82046BDE81040B3
:4004800000F0C6B89D64004008B505490B781BB9FFF7CCFF01230B70BDE80840FFF7D8BFE481FF1F074B1B78DBB203F0200202F0FF002AB1044A13F01E0F107818BF00207E
:4004C000704700BF6C6400404E640040034A13785B07FCD4024B1870704700BF6F6400404F64004010B5064B04461B783BB100218BB2E05C013110B1FFF7E8FFF8E710BD34
:40050000E481FF1F044A137803F07F0343EAC010C0B21070704700BF20510040014B1878C009704721510040044A8000137800F0040003F0FB030343137070476051004017
:40054000024B1878C0F38000704700BF61510040044AC000137800F0080003F0F70303431370704760510040024B1878C0F3C000704700BF61510040044A4001137800F052
:40058000200003F0DF03034313707047F0510040024B1878C0F34010704700BFF1510040024B1878C0F34010704700BF61510040044A137843F001031370137C43F00103CC
:4005C00013747047A243004038B50446084DB4F5004F05D9286800F00FF8A4F50044F6E7034B58686043BDE8384000F005B800BFD080FF1F000000000230800803D000BF01
:4006000001380046FCD17047EFF3108072B6704780F31088704700BF014B1868704700BF4081FF1F0E4B70B51E460E4C0025E41AA410A54204D056F8253098470135F8E75F
:4006400000F068FD084B094C1E46E41AA4100025A54204D056F8253098470135F8E770BD2011000020110000201100002811000003460244934202D003F8011BFAE7704712
:400680000EB400B54FF402719CB0ADF814106FF00041049107914FF6FF711DAB02900690084853F8042BADF81610006802A9019300F064F8029B00221A701CB05DF804EBA5
:4006C00003B070474081FF1F2DE9F0478E6882469E420C46914698463ED88A8912F4906F3AD02568096902236F1A656905EB450595FBF3F57B1C43449D4238BF1D465305AB
:400700000FD5294600F04AFB064698B13A46216900F0D2FAA38923F4906343F08003A38113E02A4600F098FB064670B92169504600F0E8FA0C23CAF80030A3894FF0FF30BE
:4007400043F04003A381BDE8F08726613E44266046466561ED1BA560464528BF464649463246206800F0B3FAA36800209B1BA36023681E442660BDE8F08700002DE9F04FE3
:400780009DB003938B8980461C060D4616460DD50B695BB9402100F001FB2860286118B90C23C8F80030CDE040236B610023099320238DF82930DFF89CB130238DF82A30E1
:4007C00037463C4614F8013B1BB9B7EB060910D003E0252BF9D02746F3E74B46324629464046FFF771FF013000F0A780099B4B4409933B78002B00F0A08000234FF0FF320E
:4008000004930793059206938DF853301A930126052221784E4800F041FA671C049B38B14B4A3C46801A06FA00F018430490EFE7D90644BF20228DF853201A0744BF2B22FC
:400840008DF8532022782A2A03D0079A00210A200BE0039A111D12680391002A10DA524243F00200079204900BE027463B780134303B092B03D800FB02320121F5E701B16C
:4008800007923B782E2B1ED17B782A2B0AD1039B02371A1D1B680392002BB8BF4FF0FF33059310E0002319460593781C0A2407463A780130303A092A03D804FB01210123F7
:4008C000F5E703B1059103223978224800F0E6F940B14023CBEB000003FA00F0049B013718430490397806221B487E1C8DF8281000F0D4F988B1194B33B9039B073323F042
:4009000007030833039314E003AB00932A46144B04A94046AFF3008007E003AB00932A460F4B04A9404600F093F8B0F1FF3F824603D0099B5344099342E7AB895B0601D4FF
:40094000099801E04FF0FF301DB0BDE8F08F00BFE1100000E7100000EB10000000000000C90600002DE9F04791461F460A698B6806469342B8BF1346C9F8003091F8432068
:400980000C46DDF8208012B10133C9F800302368990642BFD9F800300233C9F80030256815F0060510D104F1190A07E00123524639463046C04701301AD00135E368D9F894
:4009C00000209B1A9D42F1DB94F843302268003318BF012392060FD5E118302081F843005A1C94F845102244023382F8431003E04FF0FF30BDE8F08704F1430239463046E4
:400A0000C0470130F4D02268D9F80050E36802F00602042A08BF5D1B2269A3680CBF25EAE57500259342C4BF9B1AED184FF000091A344D4509D00123224639463046C047D3
:400A40000130D5D009F10109F3E70020BDE8F0872DE9F04317460A7E85B06E2A984606460C460C9B01F1430E00F0AE8011D8632A22D009D8002A00F0BB80582A40F0CA806D
:400A800081F84520834955E0642A1ED0692A1CD0C0E0732A00F0B08009D86F2A2ED0702A40F0B8800A6842F020020A603EE0752A24D0782A3AD0ADE01A6801F14205111D82
:400AC0001960136884F84230A8E021681A6811F0800F02D0111D196008E011F0400F02F10401196002D0B2F9003000E01368002B3CDA2D225B4284F8432037E021681A6899
:400B000011F0800F02D0111D196007E011F0400F02F10401196001D0138800E01368227E5C496F2A14BF0A2208221BE078225A4984F845202268186812F0800F00F1040588
:400B40001D6003D1550601D5038800E00368D00744BF42F0200222601BB9226822F0200222601022002084F8430001E049490A226568002DA56008DB206820F004002060AB
:400B80002BB9002D7DD175460CE0002B79D07546B3FBF2F002FB1033CB5C05F8013D03460028F5D1082A0BD12368DA0708D5236962689A42DEBF302305F8013C05F1FF35BA
:400BC000C5EB0E0323612EE008681A6810F0800F496903D0101D1860136808E010F0400F02F104001860136801D0198000E0196000232361754616E01A68111D196015689A
:400C000000216268284600F049F808B1401B6060636804E004F1420584F8422001232361002384F84330CDF800803B4603AA21463046FFF797FE013002D14FF0FF3026E080
:400C400023692A4639463046C0470130F5D023689B0710D5002504F1190907E001234A4639463046C0470130E7D00135E368039A9B1A9D42F2DBE068039B9842B8BF1846A5
:400C800005E00B7804F1420584F842308AE705B0BDE8F083F21000000311000010B5C9B202449042034605D01C7801308C42F8D1184610BD002010BD10B5431E0A4491421D
:400CC00004D011F8014B03F8014FF8E710BD884210B501EB020301D8421E0BE09842FBD28118D21AD34204D013F8014D01F8014DF8E710BD994204D011F8014B02F8014F81
:400D0000F8E710BD38B50546002944D051F8043C0C1F002BB8BFE41800F0D4F81E4A1368114613B96360146030E0A3420DD92268A018834201BF18685B68121822606360F3
:400D40000C6023E0A24203D813465A68002AF9D118681918A1420BD12168014458188242196013D110685268014419605A600DE002D90C232B6009E021686018824201BFCD
:400D8000106852680918216062605C602846BDE8384000F098B838BDEC81FF1F70B5CD1C25F0030508350C2D38BF0C25002D064601DBA94202D90C23336046E000F082F860
:400DC000234B1C681A462146A1B10B685B1B0ED40B2B03D90B60CC18CD501EE08C420BBF63684B681360636018BF0C4615E00C464968E9E7174C23681BB9304600F052F8F2
:400E000020602946304600F04DF8431C18D0C41C24F00304A0420DD12560304600F053F804F10B00231D20F00700C31A0ED05A42E25070BD211A304600F034F80130EBD119
:400E40000C233360304600F03EF8002070BD00BFEC81FF1FE881FF1FF8B5074615460E4621B91146BDE8F840FFF798BF1AB9FFF749FF2846F8BD00F027F885420ED9294692
:400E80003846FFF78BFF044650B131462A46FFF713FF31463846FFF735FF01E03046F8BD2046F8BD38B5064C0023054608462360FFF74AFA431C02D1236803B12B6038BD0B
:400EC000F081FF1F7047704751F8040C0028BEBF091851F8043CC0180438704700000000496E737472756374696F6E733A200A0D205072657373207820746F207175697451
:400F000021200A0D205072657373206720746F20746F67676C6520677265656E206C69676874200A0D205072657373207920746F20746F67676C652079656C6C6F77206CAD
:400F400069676874200A0D205072657373207220746F20746F67676C6520726564206C69676874200A0D20507265737320427574746F6E20616C6C2074686520776179204C
:400F80006F6E2074686520626F74746F6D20726967687420746F20746F67676C65207768697465206C69676874200A0D004D505332315F5072616B745F322C204672656598
:400FC000536F43322C2050536F4320354C502C207665722E20312E300A0D4D6172676520526974652C2050657465722053696C696520284662492054656D706C61746520E4
:401000004D5053292C204E6F7620313020323032312031393A30393A3136000A0D57656C636F6D65212025730A0D202573002E2E2E2042796521200A0D00477265656E2026
:401040006C6967687420746F67676C656421200A0D0059656C6C6F77206C6967687420746F67676C656421200A0D00526564206C6967687420746F67676C656421200A0D37
:4010800000657277617274652065696E203C783E2C2061626572203C25633E2077757264652065696E6765676562656E0A0D00005100401000305100403000C05100401046
:4010C0000000000140001000140140000800400140000A004C014000020050014020004300232D302B2000686C4C006566674546470030313233343536373839414243442E
:401100004546003031323334353637383961626364656600F8B500BFF8BC08BC9E4670474D000000C5030000F8B500BFF8BC08BC9E4670472900000048110000C880FF1FC7
:4011400080000000B000000000000000F881FF1F0000E02EC05D00001800000000366E010000000000000000000000000000000000000000000000000000000000000000C0
:40118000DF10000000000000000000000000000000000000000000000000000000000000000000000000000000000000000000000000000000000000000000000000000040
:4011C000E080FF1F00000000000000000000000000000000000000000000000000000000000000000000000000000000000000000000000000000000000000000000000071
:4012000000000000000000000000000000000000000000000000000000000000000000000000000000000000000000000000000000000000000000000000000000000000AE
:40124000000000000000000000000000000000000000000000000000000000000000000000000000000000000000000000000000000000000000000000000000000000006E
:40128000000000000000000000000000000000000000000000000000000000000000000000000000000000000000000000000000000000000000000000000000000000002E
:4012C00000000000000000000000000000000000000000000000000000000000000000000000000000000000000000000000000000000000000000000000000000000000EE
:020000040003F7
:0200000480007A
:4000000001450040015200400364004001030140040B0140560C0140480D0140670E0140330F01400240014003410140054501400446014002500140015101403502140169
:400040008C388D728F0FE602AF10B002B502EC02024C070108310A0E106C12031E132208270128312A46300F3230344A370138083A223E043F404003460449FF4A074BFF79
:400080004C404D204EF04F05500854185604580459045A045B045F01604061A8624063208004841C850C86E189048A638D63903C917392C2930C94FF957F99429A049CE707
:4000C0009D089E18A010A11CA363A408A763A818A91FAB60AD21AF80B01FB10FB258B310B438B580B680B760B880BA0ABB02BF04D602D712D804D904DB04DF010102021454
:4001000005100744080409200A420E800F01108013181640172019011A411B281D181E801F012123220523022701280229052A142B082F2030843102321838683F0445081C
:40014000468047014F0356405A085F0265206680674069506B1070947318874090409220932495529601970299249B609C029E409F14A208A721AA01AB08C05EC29FC45E82
:40018000CA4FCC0FCE4ED040D682D8B005500726097C0C010D040F19197C1E02240128012D282E022F46311C32013402356037033B083E103F404043410642024401450CBC
:4001C00047E0482149FF4AFF4BFF4C624DA04EF04F41500C580459045A045F016640670269106A306B106D106E106F12801C8120820283458410860C89038B4490209203F0
:4002000095539704981499539B0C9F08A010A40CA611A980AC09AD0AAE10AF54B01FB130B30FB420B580B740B902BB08BE10BF50C024C103C50BC6C0C70EC819C9FFCAFFD6
:40024000CBFFCEF0CF44D00CD401D804D904DA04DB04DF01E6C0EA40EB020140068007200A010E400F081012111016401744181019241E401F10204522182640276828021D
:400280002E802F09301033103764384439103D023E303F02401141014320450147244A084B044F085002562057085E925F08C031C251C4B7CA38CC74CEAED0EFD204D6F0D2
:4002C0003220CC108620A620E640000801085220C008D404AE20B004B508EA0600010E01000300000020200000000000000B0B0000000000820001828200020000000000FA
:400300002C00002C0C000000000000000000000000000000000000000000000000000000000000000000000000000000000000000000000000000000000000000000000059
:40034000000000000000000000000000000000000000000000000000000000000000000000000000000000000000000000000000000000000000000000000000000000007D
:40038000000000000000000000000000000000000000000000000000000000000000000000000000000000000000000000000000000000000000000000000000000000003D
:4003C00000000000000000000000000000000000000000000000000000000000000000000000000000000000000000000000000000000000000000000000000000000000FD
:4004000000000000000000000000000000000000000000000000000000000000000000000000000000000000000000000000000000000000000000000000000000000000BC
:0200000490006A
:0400000000004005B7
:0200000490105A
:04000000BC90ACAF55
:0200000490303A
:0200000000837B
:0200000490402A
:4000000000000000000000000000000000000000000000000000000000000000000000000000000000000000000000000000000000000000000000000000000000000000C0
:400040000000000000000000000000000000000000000000000000000000000000000000000000000000000000000000000000000000000000000000000000000000000080
:400080000000000000000000000000000000000000000000000000000000000000000000000000000000000000000000000000000000000000000000000000000000000040
:4000C0000000000000000000000000000000000000000000000000000000000000000000000000000000000000000000000000000000000000000000000000000000000000
:0200000490501A
:0C00000000012E16006900012E1D00EC0E
:00000001FF