:400000000080002011000000DD070000DD07000080B500AF024A034B1B68136000F010FCBC760040FA46004010B5054C237833B9044B13B10448AFF300800123237010BD43
:400040001882FF1F00000000B81A0000084B10B51BB108490848AFF300800848036803B910BD074B002BFBD0BDE81040184700BF000000001C82FF1FB81A0000C880FF1FBC
:400080000000000080B483B000AF78607B68002B01D1012300E0002318460C37BD4680BC704700BF80B500AF00F0C0FC03461A46014B1A7000BF80BDB482FF1F80B500AFB2
:4000C00000F0A6FE044B1B78012B02D0024B01221A7000BF80BD00BFB582FF1F80B400AF0C4B1B6801330B4A13600A4B1A680A4BA3FB02139B094FF47A7101FB03F3D31A39
:40010000002B02D1054B01221A7000BFBD4680BC704700BFB882FF1FD34D6210B682FF1F80B582B000AF78607B681B681846FFF7A9FF0346184600F025FD7B6804331B686A
:400140001846FFF79FFF0346184600F035FD7B6808331B681846FFF795FF0346184600F049FD7B681B681846FFF78CFF0346184600F05EFD7B6804331B681846FFF782FFB5
:400180000346184600F072FD7B6808331B681846FFF778FF0346184600F086FD7B680C331B681846FFF76EFF0346184600F09AFD7B6810331B681846FFF764FF0346184618
:4001C00000F0AEFD7B6814331B681846FFF75AFF0346184600F0C2FD7B6818331B681846FFF750FF0346184600F0F4FD7B681C331B681846FFF746FF0346184600F0CCFD2A
:4002000000BF0837BD4680BD80B582B000AF3F4B1B680A2B62D801A252F823F049020000510200005902000059020000590200008F02000049020000970200009F02000029
:400240009F020000D50200003148FFF769FF4CE03048FFF765FF48E02F48FFF761FF2F4B1B78002B3ED02E4800F01CFC072000F0FFFB00237B6002E07B6801337B607B68B2
:40028000284A9342F8DD254B00221A702AE02648FFF746FF29E02548FFF742FF25E02448FFF73EFF1D4B1B78002B1DD0214800F0F9FB072000F0DCFB00233B6002E03B6871
:4002C00001333B603B68174A9342F8DD134B00221A7009E01848FFF723FF06E0174800F0E1FB02E000BF00E000BF084B1B680133064A1360054B1B680A2B02DD034B0022A1
:400300001A6000BF0837BD4680BD00BFBC82FF1FCC80FF1FEC80FF1F0C81FF1FB582FF1FBC1A00007F9698002C81FF1F4C81FF1F6C81FF1FD41A00008C81FF1FEC1A000093
:4003400080B582B000AF00F00FFB384800F0CCFB00F0C8FD364800F06BFD00F059FD00F0B5FD344800F0BCFE62B6334A3349344800F07EFF324800F095FB324B1B78002B6E
:4003800004D0304B00221A70FFF73EFF2E4B1B78002BF2D02C4B1B78FB712B4B00221A70FB79482B0FD0482B04DC2B2B0FD02D2B21D034E0682B06D0712B01D0512B2ED182
:4003C00000F0F6FE30E0214800F06CFB2CE0204800F068FB00F06CFE0346323B9BB2184600F01EFE00F070FE0346323B9BB2184600F026FE18E0174800F054FB00F058FE0C
:40040000034632339BB2184600F00AFE00F05CFE034632339BB2184600F012FE04E0FB79184600F025FB00BFA7E700BFA5000000BD000000DD000000041B0000581B000025
:400440003482FF1FB682FF1FB482FF1F681B0000DC1B0000EC1B000080B582B000AF786039603A680021786800F0F9FE00BF0837BD4680BD80B584B000AFF860B9607A60CB
:400480007A68B968F86800F0DFFE00BF1037BD4680BD00BF80B483B000AF0346FB71FEE780B487B000AF7860396000233B6100237B6127E07B699B007A6813441B68BB60B1
:4004C000BB68FB73BB6823F0FF03BB6014E03B695B003A6813441B781A46BB68134419463B695B003A6813445B780B703B6901333B61FB7B013BFB73FB7B002BE7D17B6949
:4005000001337B617B69152BD4D900BF1C37BD4680BC704780B582B000AF374B19221A80364B18221A70364BEF221A80354B18221A70354B45F6BF521A80344B18221A7007
:40054000334B02221A704FF0402308221A70314B03221A70304B314A1278D2B21A70304B08221A802F4B41F251221A800023FB7019237B6014E0FB785B00DAB22A4B1B784C
:40058000DBB203F00103DBB21343DBB203F00303FB704FF4F07000F01BFE7B68013B7B607B68002B02D0FB78032BE4D17B68002B02D10320FFF76EFF1C4B4FF480721A806A
:4005C0001A4B07221A701A4B00221A70194B48221A70164B00221A70174B02221A70174A164B1B78DBB243F00703DBB2137000BF0837BD4680BD00BF80400040824000402F
:400600008440004086400040884000408A4000400043004000420040A14600400801004922420040204200402542004004400040064000400840004001400040A2430040FB
:4006400080B483B000AF0B4B1B78FB710A4AFB7903F00703DBB21370084AFB791B09DBB21370074B44221A7000BF0C37BD4680BC704700BFCF0100496E5800406F58004021
:400680007658004080B582B000AF72B63E4A3E4B1B78DBB243F00403DBB213700023FB7113E0FA7913465B0013445B00374A13443B603B681A683B689B889BB219461046B8
:4006C000FFF7CAFEFB790133FB71FB79062BE8D92F494FF09040FFF7E3FE2E4A2D4B1B78DBB243F00203DBB213702B4A2A4B1B78DBB243F00203DBB21370284A274B1B7843
:40070000DBB243F04003DBB21370254A244B1B78DBB243F01003DBB213700A2221492248FFF7A8FE082221492148FFF7A3FE082220492148FFF79EFE0A2220492048FFF7A1
:4007400099FE0A221F492048FFF794FE1F4A1F4B1B78DBB243F00803DBB213701C4B61221A70FFF7D7FE1A4B81221A70194B01221A70FFF765FF0E2208491748FFF77AFE93
:4007800000BF0837BD4680BDE8460040F81B0000580000480350014013500140A0430040C243004030050048C05100403C050048F251004044050048125100404C05004893
:4007C000205100405805004860510040224300400048004004000840B043004080B500AF00F006FD03461B680C2B00D1FEE7FEE780B584B000AF78600F4B1A687B6813448B
:400800001A460E4BD31A802B09DC0B4B1B68FB60094B1A687B681344074A136007E000F0E7FC02460C2313604FF0FF33FB60FB6818461037BD4680BDAC81FF1FD082FF1F07
:4008400080B586B000AF224B7B61224B3B61204B7B6135E03B691B68FB603B695B68BB603B699B683B6000237B600CE0FB681A68BB681A60BB680433BB60FB680433FB6094
:400880007B6804337B607A683B689A42EED13B69DB683B6000237B6008E0BB6800221A60BB680433BB607B6804337B607A683B689A42F2D13B6910333B617B69013B7B61EF
:4008C0007B69002BC6D100F099FCFFF739FDFEE7010000007C1C000080B582B000AF184B184A1A60184A184B1B6843F40073136000237B600FE07B68032B04D8134A7B684F
:4009000052F8233000E0124B12497A6841F822307B6801337B607B682F2BECD90E4B1B78DAB20E4B1A700E4B0A4A1A60FFF7AAFE0C4B00221A6000BF0837BD4680BD00BF11
:400940000CED00E00004FA0514ED00E000000000DD0700000080FF1FBC760040C480FF1F08ED00E0C080FF1F80B500AF064B1B78002B04D100F00AF8034B01221A7000F08C
:4009800025F800BF80BD00BFC082FF1F80B400AF094B72221A70094B20221A70084B06221A70084B47221A70074B00221A7000BFBD4680BC704700BF8D6400408A6400406E
:4009C00029640040396400408864004080B582B000AF00F005FC0346FB71114A104B1B78DBB243F02003DBB213700E4A0D4B1B78DBB243F01003DBB213700B4A0A4B1B78C6
:400A0000DBB243F01003DBB2137000F0B7FBFB79184600F0E9FB00BF0837BD4680BD00BF9D6400409A6400409864004080B483B000AF0023FB710C4B1B78BB71BB7903F0F1
:400A40002003002B09D0094B1B78FB71BB7903F01E03002B01D00023FB71FB7918460C37BD4680BC704700BF6A6400404E64004080B483B000AF0346FB7100BF074B1B78F0
:400A8000DBB203F00403002BF8D1054AFB79137000BF0C37BD4680BC704700BF686400404864004080B584B000AF78600023FB810C4B1B78002B10D009E0FB897A6813449C
:400AC0001B781846FFF7D4FFFB890133FB81FB897A6813441B78002BEFD100BF1037BD4680BD00BFC082FF1F80B582B000AF786000F03CF8786800F009F8072000F018F85E
:400B000000F028F800BF0837BD4680BD80B485B000AF7860054B1B68FB60FB6844337A681A6000BF1437BD4680BC704708ED00E080B483B000AF0346FB71054AFB795B0154
:400B4000DBB2137000BF0C37BD4680BC704700BF01E400E080B400AF034B02221A6000BFBD4680BC704700BF00E100E080B400AF034B02221A6000BFBD4680BC704700BFA2
:400B800080E100E080B485B000AF0346FB71094B1B78DBB203F07F03FB730649FB79DB01DAB2FB7B1343DBB20B7000BF1437BD4680BC70472051004080B485B000AF0346BF
:400BC000FB710B4B1B78DBB223F00403FB730849FB799B00DBB203F00403DAB2FB7B1343DBB20B7000BF1437BD4680BC704700BF6051004080B485B000AF0346FB710B4B71
:400C00001B78DBB223F00803FB730849FB79DB00DBB203F00803DAB2FB7B1343DBB20B7000BF1437BD4680BC704700BF6051004080B485B000AF0346FB710B4B1B78DBB28A
:400C400023F04003FB730849FB799B01DBB203F04003DAB2FB7B1343DBB20B7000BF1437BD4680BC704700BF2051004080B485B000AF0346FB710B4B1B78DBB223F0200343
:400C8000FB730849FB795B01DBB203F02003DAB2FB7B1343DBB20B7000BF1437BD4680BC704700BF2051004080B485B000AF0346FB710B4B1B78DBB223F01003FB7308490A
:400CC000FB791B01DBB203F01003DAB2FB7B1343DBB20B7000BF1437BD4680BC704700BF2051004080B485B000AF0346FB710B4B1B78DBB223F01003FB730849FB791B0149
:400D0000DBB203F01003DAB2FB7B1343DBB20B7000BF1437BD4680BC704700BF6051004080B485B000AF0346FB710B4B1B78DBB223F02003FB730849FB795B01DBB203F088
:400D40002003DAB2FB7B1343DBB20B7000BF1437BD4680BC704700BFC051004080B485B000AF0346FB710B4B1B78DBB223F01003FB730849FB791B01DBB203F01003DAB209
:400D8000FB7B1343DBB20B7000BF1437BD4680BC704700BFC051004080B485B000AF0346FB710B4B1B78DBB223F02003FB730849FB795B01DBB203F02003DAB2FB7B13434C
:400DC000DBB20B7000BF1437BD4680BC704700BFF051004080B485B000AF0346FB710B4B1B78DBB223F01003FB730849FB791B01DBB203F01003DAB2FB7B1343DBB20B7000
:400E000000BF1437BD4680BC704700BFF051004080B400AF054B1B78DBB203F020035B09DBB21846BD4680BC704700BF8645004080B582B000AF786000F03CF8786800F018
:400E400009F8072000F018F800F028F800BF0837BD4680BD80B485B000AF7860054B1B68FB60FB6868337A681A6000BF1437BD4680BC704708ED00E080B483B000AF034650
:400E8000FB71054AFB795B01DBB2137000BF0C37BD4680BC704700BF0AE400E080B400AF034B4FF480621A6000BFBD4680BC704700E100E080B400AF034B4FF480621A60FC
:400EC00000BFBD4680BC704780E100E080B400AF034B4FF480621A6000BFBD4680BC704780E200E080B500AF064B1B78002B04D100F00AF8034B01221A7000F053F800BF86
:400F000080BD00BFC282FF1F80B582B000AF214B1B78DBB223F03F03FB711E4AFB7943F01203DBB213701C4A1B4B1B78DBB243F00103DBB21370194A184B1B78DBB243F070
:400F40000103DBB213704FF47A7000F03BF84FF47A7000F055F8642000F062F8642000F06FF8002000F07CF800F03AF90346BB710B4A0B4B1B78DBB243F01003DBB21370BD
:400F8000BB79184600F030F900F02CF800BF0837BD4680BD7B6400409C6400409D6400409F64004080B400AF054A054B1B78DBB263F07F03DBB2137000BFBD4680BC704715
:400FC0007B64004080B483B000AF0346FB80044AFB88138000BF0C37BD4680BC704700BF1868004080B500AF01E000F055F800F047F8034603F01003002BF6D100BF80BDAF
:4010000080B483B000AF0346FB80044AFB88138000BF0C37BD4680BC704700BF9868004080B483B000AF0346FB80044AFB88138000BF0C37BD4680BC704700BF5868004086
:4010400080B483B000AF0346FB80044AFB88138000BF0C37BD4680BC704700BF7868004080B483B000AF0346FB71044AFB79137000BF0C37BD4680BC704700BF8F64004061
:4010800080B400AF034B1B78DBB21846BD4680BC704700BF6F64004080B400AF034B1B889BB21846BD4680BC704700BFB868004080B400AF034B1B889BB21846BD4680BC67
:4010C000704700BF5868004080B400AF034B1B889BB21846BD4680BC704700BF7868004080B582B000AF786000F03CF8786800F009F8072000F018F800F028F800BF08370E
:40110000BD4680BD80B485B000AF7860054B1B68FB60FB6840337A681A6000BF1437BD4680BC704708ED00E080B483B000AF0346FB71054AFB795B01DBB2137000BF0C374E
:40114000BD4680BC704700BF00E400E080B400AF034B01221A6000BFBD4680BC704700BF00E100E080B400AF034B01221A6000BFBD4680BC704700BF80E100E080B400AF8D
:40118000094A094B1B78DBB243F00103DBB21370064A064B1B78DBB243F00103DBB2137000BFBD4680BC7047A2430040B243004080B400AF054A054B1B78DBB243F0010331
:4011C000DBB2137000BFBD4680BC7047F64600400230800803D000BF01380046FCD17047EFF3108072B6704780F31088704700BF014B1868704700BF1082FF1F0E4B70B51D
:401200001E460E4C0025E41AA410A54204D056F8253098470135F8E700F01EFD084B094C1E46E41AA4100025A54204D056F8253098470135F8E770BD641C0000641C00005A
:40124000641C00006C1C000010B5431E0A44914204D011F8014B03F8014FF8E710BD03460244934202D003F8011BFAE7704700000EB400B54FF402719CB0ADF814106FF079
:401280000041049107914FF6FF711DAB02900690084853F8042BADF81610006802A9019300F064F8029B00221A701CB05DF804EB03B070471082FF1F2DE9F0478E68824615
:4012C0009E420C46914698463ED88A8912F4906F3AD02568096902236F1A656905EB450595FBF3F57B1C43449D4238BF1D4653050FD5294600F040FB064698B13A462169D6
:40130000FFF7A2FFA38923F4906343F08003A38113E02A4600F08EFB064670B92169504600F0DEFA0C23CAF80030A3894FF0FF3043F04003A381BDE8F08726613E442660CD
:4013400046466561ED1BA560464528BF464649463246206800F0A8FAA36800209B1BA36023681E442660BDE8F08700002DE9F04F9DB003938B8980461C060D4616460DD5B7
:401380000B695BB9402100F0F7FA2860286118B90C23C8F80030CDE040236B610023099320238DF82930DFF89CB130238DF82A3037463C4614F8013B1BB9B7EB060910D0A4
:4013C00003E0252BF9D02746F3E74B46324629464046FFF771FF013000F0A780099B4B4409933B78002B00F0A08000234FF0FF3204930793059206938DF853301A93012671
:40140000052221784E4800F041FA671C049B38B14B4A3C46801A06FA00F018430490EFE7D90644BF20228DF853201A0744BF2B228DF8532022782A2A03D0079A00210A2088
:401440000BE0039A111D12680391002A10DA524243F00200079204900BE027463B780134303B092B03D800FB02320121F5E701B107923B782E2B1ED17B782A2B0AD1039BB0
:4014800002371A1D1B680392002BB8BF4FF0FF33059310E0002319460593781C0A2407463A780130303A092A03D804FB01210123F5E703B1059103223978224800F0E6F90B
:4014C00040B14023CBEB000003FA00F0049B013718430490397806221B487E1C8DF8281000F0D4F988B1194B33B9039B073323F007030833039314E003AB00932A46144B8C
:4015000004A94046AFF3008007E003AB00932A460F4B04A9404600F093F8B0F1FF3F824603D0099B5344099342E7AB895B0601D4099801E04FF0FF301DB0BDE8F08F00BF32
:40154000241C00002A1C00002E1C000000000000B91200002DE9F04791461F460A698B6806469342B8BF1346C9F8003091F843200C46DDF8208012B10133C9F800302368D9
:40158000990642BFD9F800300233C9F80030256815F0060510D104F1190A07E00123524639463046C04701301AD00135E368D9F800209B1A9D42F1DB94F843302268003386
:4015C00018BF012392060FD5E118302081F843005A1C94F845102244023382F8431003E04FF0FF30BDE8F08704F1430239463046C0470130F4D02268D9F80050E36802F030
:401600000602042A08BF5D1B2269A3680CBF25EAE57500259342C4BF9B1AED184FF000091A344D4509D00123224639463046C0470130D5D009F10109F3E70020BDE8F087BB
:401640002DE9F04317460A7E85B06E2A984606460C460C9B01F1430E00F0AE8011D8632A22D009D8002A00F0BB80582A40F0CA8081F84520834955E0642A1ED0692A1CD077
:40168000C0E0732A00F0B08009D86F2A2ED0702A40F0B8800A6842F020020A603EE0752A24D0782A3AD0ADE01A6801F14205111D1960136884F84230A8E021681A6811F0DA
:4016C000800F02D0111D196008E011F0400F02F10401196002D0B2F9003000E01368002B3CDA2D225B4284F8432037E021681A6811F0800F02D0111D196007E011F0400FC3
:4017000002F10401196001D0138800E01368227E5C496F2A14BF0A2208221BE078225A4984F845202268186812F0800F00F104051D6003D1550601D5038800E00368D0078D
:4017400044BF42F0200222601BB9226822F0200222601022002084F8430001E049490A226568002DA56008DB206820F0040020602BB9002D7DD175460CE0002B79D0754699
:40178000B3FBF2F002FB1033CB5C05F8013D03460028F5D1082A0BD12368DA0708D5236962689A42DEBF302305F8013C05F1FF35C5EB0E0323612EE008681A6810F0800F0F
:4017C000496903D0101D1860136808E010F0400F02F104001860136801D0198000E0196000232361754616E01A68111D1960156800216268284600F049F808B1401B606004
:40180000636804E004F1420584F8422001232361002384F84330CDF800803B4603AA21463046FFF797FE013002D14FF0FF3026E023692A4639463046C0470130F5D0236859
:401840009B0710D5002504F1190907E001234A4639463046C0470130E7D00135E368039A9B1A9D42F2DBE068039B9842B8BF184605E00B7804F1420584F842308AE705B05A
:40188000BDE8F083351C0000461C000010B5C9B202449042034605D01C7801308C42F8D1184610BD002010BD884210B501EB020301D8421E0BE09842FBD28118D21AD3428E
:4018C00004D013F8014D01F8014DF8E710BD994204D011F8014B02F8014FF8E710BD000038B50546002944D051F8043C0C1F002BB8BFE41800F0D4F81E4A1368114613B945
:401900006360146030E0A3420DD92268A018834201BF18685B681218226063600C6023E0A24203D813465A68002AF9D118681918A1420BD12168014458188242196013D110
:4019400010685268014419605A600DE002D90C232B6009E021686018824201BF106852680918216062605C602846BDE8384000F098B838BDC882FF1F70B5CD1C25F0030528
:4019800008350C2D38BF0C25002D064601DBA94202D90C23336046E000F082F8234B1C681A462146A1B10B685B1B0ED40B2B03D90B60CC18CD501EE08C420BBF63684B68B4
:4019C0001360636018BF0C4615E00C464968E9E7174C23681BB9304600F052F820602946304600F04DF8431C18D0C41C24F00304A0420DD12560304600F053F804F10B007C
:401A0000231D20F00700C31A0ED05A42E25070BD211A304600F034F80130EBD10C233360304600F03EF8002070BD00BFC882FF1FC482FF1FF8B5074615460E4621B91146CF
:401A4000BDE8F840FFF798BF1AB9FFF749FF2846F8BD00F027F885420ED929463846FFF78BFF044650B131462A46FFF7EDFB31463846FFF735FF01E03046F8BD2046F8BD88
:401A800038B5064C0023054608462360FEF7B0FE431C02D1236803B12B6038BDCC82FF1F7047704751F8040C0028BEBF091851F8043CC01804387047000000000A0D5061FF
:401AC0007373656E67657273204E532070617373210A00000A0D50617373656E6765727320572070617373210A000000536F6D657468696E672077656E742077726F6E6735
:401B00002E0000004D505332315F5072616B745F34202D2046726565536F43322C2050536F4320354C50202D205665722E20312E310A0D53656261737469616E205A696C00
:401B40006C2C2044656320203820323032312031383A35313A3136000A0D57656C636F6D65212025730A0D000A0D48656C703A0A0D202020202020202020202020202020D6
:401B800020202020202020202020202020202020202020202009682C483A2068656C700A0D20202020202020202020202020202020202020202020202020202020202020A6
:401BC000202020202009712C513A20736F6674776172652072657365740A0D000A0D4272696768746572210A000000000A0D4461726B6572210A00000051004010003051F9
:401C00000040300000000140001000140140000800400140000A004C014000020050014020004300232D302B2000686C4C006566674546470030313233343536373839413B
:401C4000424344454600303132333435363738396162636465660000F8B500BFF8BC08BC9E4670474D000000D9080000F8B500BFF8BC08BC9E46704729000000901C0000AD
:401C8000C880FF1F50010000B800000000000000000000000100000000000000000000000100000000000000000000000000000000000000010000000100000000000000B1
:401CC00001000000000000000000000000000000000000000000000000000000010000000100000000000000000000000100000000000000000000000100000000000000DF
:401D0000010000000000000000000000000000000000000001000000000000000000000001000000010000000000000000000000000000000100000000000000000000009E
:401D400000000000000000000100000000000000010000000100000000000000000000000000000001000000000000000000000000000000D082FF1F0000000000000000EF
:401D8000000000000000000000000000000000000000000000000000221C0000000000000000000000000000000000000000000000000000000000000000000000000000E5
:401DC000000000000000000000000000000000000000000000000000B081FF1F00000000000000000000000000000000000000000000000000000000000000000000000094
:401E000000000000000000000000000000000000000000000000000000000000000000000000000000000000000000000000000000000000000000000000000000000000A2
:401E40000000000000000000000000000000000000000000000000000000000000000000000000000000000000000000000000000000000000000000000000000000000062
:401E80000000000000000000000000000000000000000000000000000000000000000000000000000000000000000000000000000000000000000000000000000000000022
:401EC00000000000000000000000000000000000000000000000000000000000000000000000000000000000000000000000000000000000000000000000000000000000E2
:020000040003F7
:0200000480007A
:4000000001450040035200400464004001050140590801403F090140440A0140470B01405E0C0140430D01404D0E01402F0F01400119014003400140024101400442014028
:40004000014301400A450140074601400348014003500140015101403502100C11061401880F8A388D728F0FE20404030519060407220A080B010C0A0D210E040F181003C9
:400080001138120C1305170619121B201F01201025202605280329282A04300F33013410353E3A023E103F044043410245E046C0470B481A49FF4AFF4BFF4EF04F44500C30
:4000C0005401580459045A045B045F0166C06A406B028010820486018C0390089204950198039C049E18A002A41CA81CB101B403B61CB820BE10BF01C002C640C9FFCA078F
:40010000CBFFCC40CD20CEF0CF05D008D804D904DA04DF01E040E1A8E240E3200040010A05200610072208020A050D021114130214201501160818041A011C401D021E08FC
:400140002340260827042C082F103304356037063C403E0C3F20400444204502460849084D0153105408561057105D015E485F2088208948911492049601976098029922A0
:400180009B029D08A502B002B201C0EDC21BC47ECA60CCF2CE70D0E4D6F0020404020518081C09080C180D101018110312041418151F160418011B071C011D1C1F03201037
:4001C0002102240825072718280429182A182B072D012E013103321C3403351C38203A083B0854185604580459045B045F0185018601870E8A068C068E01910C92059303C5
:4002000097039A039B0C9D019F06A708AA02B407B70FBA20BB80D280D804D904DB04DD10DF010020018802800528070208400A940D020E84118012541308160819201A107A
:400240001B041E0420202110220525402702280229022A042B042E082F10300232443320344035283640370238883A503E045A02600461806380768083408B40908C911420
:40028000928095209611980299829A049B089E80A180A280A320A410B012B280B320B510C0EFC25FC44FCA4FCCFFCE4ED601D80D02011902220125022F013101340137029F
:4002C00039803E104010410449FF4AFF4BFF4DA04F045018580459045A045C105D015F01604062C06440654066C068C06AC06CC06EC083048518880189088D108E029001C5
:4003000091609401957C970199249A049B809F63A140A206A567A718A801A97FAD1CAF62B001B180B378B406B71FBB88BE01C050C101C5D0C612C745C83FC9FFCAFFCBFFCB
:40034000CDAFCE0FCF04D018D602D713D804D904DA04DB04DC01DD01DF01E040E2C0E440E540E6C0E8C0EAC0ECC0EEC0002001200202078008050A930B081102120C164029
:4003800019111E08201021012248250126012782280129222A042E802F1030143281361038A839024140464047804A114B0151405242531C590169546B04705472207308F4
:4003C00089808A209004941095649611972199029C039D209F86A180A280A616A708B501C013C20EC41ACA5FCC2FCE0FD098D208D6010418070208180B020C100D040E0C06
:400400001008121415041601180119041E022301270128012E0130183102340135013606370438203E403F11403541064202440145E0470C481249FF4AFF4BFF4C624DA044
:400440004EF04F41500C580459045A045F016640670269106A306B106D106E106F128C03930196019B049C049F0CA103A404A708AA02AB02B003B10CB303B604B880D407D7
:40048000D804D904DB04DC11DD10DF01004001040314070208220A110E22100112081628184119021B101E801F80200622812501272029012B102E282F98331436133780CC
:4004C0003808396040314110480149214A0850045E885F2189808A01C087C2AFC463CAE3CCB6CE0ED00ED20CD6F0B64833403580CC309D809F4081809D809F40E2209F40A6
:400500000008578058805C109010B410C008D403D604E80888809C80B004B780E004E802EA0427409F40C88000030C030E03000F3000003030000000000000000030300050
:4005400000000000000B0B0000000000F60001FEFE000E00000000003F00003F1C0000000000000000000000000000000000000000000000000000000000000000000000CA
:40058000000000000000000000000000000000000000000000000000000000000000000000000000000000000000000000000000000000000000000000000000000000003B
:4005C00000000000000000000000000000000000000000000000000000000000000000000000000000000000000000000000000000000000000000000000000000000000FB
:4006000000000000000000000000000000000000000000000000000000000000000000000000000000000000000000000000000000000000000000000000000000000000BA
:40064000000000000000000000000000000000000000000000000000000000000000000000000000000000000000000000000000000000000000000000000000000000007A
:0200000490006A
:0400000000004005B7
:0200000490105A
:04000000BC90ACAF55
:0200000490303A
:02000000517E2F
:0200000490402A
:4000000000000000000000000000000000000000000000000000000000000000000000000000000000000000000000000000000000000000000000000000000000000000C0
:400040000000000000000000000000000000000000000000000000000000000000000000000000000000000000000000000000000000000000000000000000000000000080
:400080000000000000000000000000000000000000000000000000000000000000000000000000000000000000000000000000000000000000000000000000000000000040
:4000C0000000000000000000000000000000000000000000000000000000000000000000000000000000000000000000000000000000000000000000000000000000000000
:0200000490501A
:0C00000000012E16006900012E2251E7BD
:00000001FF