:400000000080002011000000D5050000D505000080B500AF024A034B1B68136000F00CFBBC760040FA46004010B5054C237833B9044B13B10448AFF300800123237010BD5C
:400040003881FF1F0000000088140000084B10B51BB108490848AFF300800848036803B910BD074B002BFBD0BDE81040184700BF000000003C81FF1F88140000C880FF1FEA
:400080000000000080B500AF00F0CCFB03461A46014B1A7000BF80BDD481FF1F80B500AF00F09AFC024B01221A7000BF80BD00BFD581FF1F80B400AF0E4B1B6801330D4ADA
:4000C00013600C4B1A680C4B83FB02139911D317CB1A4FF47A7101FB03F3D31A002B03D1064B01221A7002E0044B00221A70BD4680BC7047CC80FF1FD34D6210D681FF1F03
:4001000080B483B000AF0346FB71FB79002B01D1012300E0002318460C37BD4680BC704780B582B000AF00F01BFB2E4800F0D8FB2D4800F061FC00F04FFC00F0ABFC2B4869
:4001400000F0B4FC62B62A4A2A492B4800F078FD294800F0A3FB294B1B78002B18D0274B1B78FB71254B00221A70FB796D2B06D0712B01D0512B06D100F000FD08E0204883
:4001800000F08CFB04E0FB79184600F06DFB00BF1C4B1B78002B0FD000F00EFC03461846FFF7AEFF0346184600F0E8FB072000F05BFB144B00221A70134B1B78002BCAD00B
:4001C000124B1B68124A82FB03129211DB17D31A1A461049084800F033FD074800F05EFBB9E700BF850000009D000000B50000008C140000F01400005481FF1FD481FF1FAE
:4002000000150000D581FF1FD681FF1FCC80FF1FD34D62102815000080B582B000AF786039603A680021786800F001FD00BF0837BD4680BD80B584B000AFF860B9607A60CE
:400240007A68B968F86800F0E7FC00BF1037BD4680BD00BF80B483B000AF0346FB71FEE780B487B000AF7860396000233B6100237B6127E07B699B007A6813441B68BB60ED
:40028000BB68FB73BB6823F0FF03BB6014E03B695B003A6813441B781A46BB68134419463B695B003A6813445B780B703B6901333B61FB7B013BFB73FB7B002BE7D17B698B
:4002C00001337B617B69132BD4D900BF1C37BD4680BC704780B582B000AF344B19221A80334B18221A70334B45F6BF521A80324B18221A70314B02221A704FF040230822D0
:400300001A702F4B03221A702E4B2F4A1278D2B21A702E4B08221A802D4B41F251221A800023FB7019237B6014E0FB785B00DAB2284B1B78DBB203F00103DBB21343DBB29E
:4003400003F00303FB704FF4F07000F029FC7B68013B7B607B68002B02D0FB78032BE4D17B68002B02D10320FFF774FF1A4B4FF480721A80184B07221A70184B00221A706B
:40038000174B48221A70144B00221A70154B02221A70154A144B1B78DBB243F00303DBB2137000BF0837BD4680BD00BF80400040824000408440004086400040004300401B
:4003C00000420040A14600400801004922420040204200402542004004400040064000400840004001400040A243004080B483B000AF0B4B1B78FB710A4AFB7903F00703AD
:40040000DBB21370084AFB791B09DBB21370074B44221A7000BF0C37BD4680BC704700BFCF0100496E5800406F5800407658004080B586B000AF72B6504A504B1B78DBB2EE
:4004400043F00403DBB213700023FB7513E0FA7D13465B0013445B00494A13443B613B691A683B699B889BB219461046FFF7D4FEFB7D0133FB75FB7D072BE8D90023FB7578
:400480001CE0FA7D13469B0013445B003D4A1344FB60FB681B68BB60FB685B687B60FB681A7A5B7A1B0213437B807B881A467968B868FFF7BFFEFB7D0133FB75FB7D002BD8
:4004C000DFD031494FF09040FFF7CAFE2F4A2F4B1B78DBB243F00203DBB213702C4A2C4B1B78DBB243F00203DBB21370294A294B1B78DBB243F04003DBB21370264A264BE8
:400500001B78DBB243F01003DBB213700A2223492348FFF78FFE082222492348FFF78AFE082222492248FFF785FE0A2221492248FFF780FE0A2221492148FFF77BFE214A7C
:40054000204B1B78DBB243F00803DBB213701E4B61221A70FFF7BEFE1B4B81221A701B4B01221A70FFF742FF0E220A491848FFF761FE00BF1837BD4680BD00BFE8460040EA
:400580004015000070150000500000480350014013500140A0430040C2430040F8030048C051004004040048F25100400C040048125100401404004820510040200400484A
:4005C00060510040224300400048004004000840B043004080B500AF00F0F2FA03461B680C2B00D1FEE7FEE780B584B000AF78600F4B1A687B6813441A460E4BD31A802BA9
:4006000009DC0B4B1B68FB60094B1A687B681344074A136007E000F0D3FA02460C2313604FF0FF33FB60FB6818461037BD4680BDD080FF1FE881FF1F80B586B000AF224BAF
:400640007B61224B3B61204B7B6135E03B691B68FB603B695B68BB603B699B683B6000237B600CE0FB681A68BB681A60BB680433BB60FB680433FB607B6804337B607A6846
:400680003B689A42EED13B69DB683B6000237B6008E0BB6800221A60BB680433BB607B6804337B607A683B689A42F2D13B6910333B617B69013B7B617B69002BC6D100F032
:4006C00085FAFFF72DFDFEE701000000D415000080B582B000AF184B184A1A60184A184B1B6843F40073136000237B600FE07B68032B04D8134A7B6852F8233000E0124BDE
:4007000012497A6841F822307B6801337B607B682F2BECD90E4B1B78DAB20E4B1A700E4B0A4A1A60FFF784FE0C4B00221A6000BF0837BD4680BD00BF0CED00E00004FA0537
:4007400014ED00E000000000D50500000080FF1FBC760040C480FF1F08ED00E0C080FF1F80B500AF064B1B78002B04D100F00AF8034B01221A7000F025F800BF80BD00BF9C
:40078000D781FF1F80B400AF094B72221A70094B20221A70084B06221A70084B47221A70074B00221A7000BFBD4680BC704700BF8A6400408E6400402A6400403A64004085
:4007C0008B64004080B582B000AF00F0F1F90346FB71114A104B1B78DBB243F02003DBB213700E4A0D4B1B78DBB243F01003DBB213700B4A0A4B1B78DBB243F01003DBB226
:40080000137000F0A1F9FB79184600F0D5F900BF0837BD4680BD00BF9A6400409E6400409B64004080B483B000AF0023FB710C4B1B78BB71BB7903F02003002B09D0094B02
:400840001B78FB71BB7903F01E03002B01D00023FB71FB7918460C37BD4680BC704700BF6E6400404D64004080B483B000AF0346FB7100BF074B1B78DBB203F00403002BB8
:40088000F8D1054AFB79137000BF0C37BD4680BC704700BF6B6400404B64004080B584B000AF78600023FB810C4B1B78002B10D009E0FB897A6813441B781846FFF7D4FF90
:4008C000FB890133FB81FB897A6813441B78002BEFD100BF1037BD4680BD00BFD781FF1F80B582B000AF786000F03CF8786800F009F8072000F018F800F028F800BF0837F6
:40090000BD4680BD80B485B000AF7860054B1B68FB60FB6844337A681A6000BF1437BD4680BC704708ED00E080B483B000AF0346FB71054AFB795B01DBB2137000BF0C3752
:40094000BD4680BC704700BF01E400E080B400AF034B02221A6000BFBD4680BC704700BF00E100E080B400AF034B02221A6000BFBD4680BC704700BF80E100E080B485B00C
:4009800000AF0346FB710B4B1B78DBB223F02003FB730849FB795B01DBB203F02003DAB2FB7B1343DBB20B7000BF1437BD4680BC704700BFF051004080B400AF054B1B788F
:4009C000DBB203F020035B09DBB21846BD4680BC704700BFF151004080B400AF054B1B78DBB203F020035B09DBB21846BD4680BC704700BF8645004080B582B000AF786068
:400A000000F03CF8786800F009F8072000F018F800F028F800BF0837BD4680BD80B485B000AF7860054B1B68FB60FB6868337A681A6000BF1437BD4680BC704708ED00E0FF
:400A400080B483B000AF0346FB71054AFB795B01DBB2137000BF0C37BD4680BC704700BF0AE400E080B400AF034B4FF480621A6000BFBD4680BC704700E100E080B400AFCE
:400A8000034B4FF480621A6000BFBD4680BC704780E100E080B400AF034B4FF480621A6000BFBD4680BC704780E200E080B582B000AF786000F03CF8786800F009F8072082
:400AC00000F018F800F028F800BF0837BD4680BD80B485B000AF7860054B1B68FB60FB6840337A681A6000BF1437BD4680BC704708ED00E080B483B000AF0346FB71054A69
:400B0000FB795B01DBB2137000BF0C37BD4680BC704700BF00E400E080B400AF034B01221A6000BFBD4680BC704700BF00E100E080B400AF034B01221A6000BFBD4680BC8B
:400B4000704700BF80E100E080B400AF094A094B1B78DBB243F00103DBB21370064A064B1B78DBB243F00103DBB2137000BFBD4680BC7047A2430040B243004080B400AFD3
:400B8000054A054B1B78DBB243F00103DBB2137000BFBD4680BC7047F6460040000000000230800803D000BF01380046FCD17047EFF3108072B6704780F31088704700BFDD
:400BC000014B1868704700BF3481FF1F0E4B70B51E460E4C0025E41AA410A54204D056F8253098470135F8E700F0E2FC084B094C1E46E41AA4100025A54204D056F825306C
:400C000098470135F8E770BDBC150000BC150000BC150000C415000010B5431E0A44914204D011F8014B03F8014FF8E710BD03460244934202D003F8011BFAE770470000FB
:400C40000EB400B54FF402719CB0ADF814106FF00041049107914FF6FF711DAB02900690084853F8042BADF81610006802A9019300F064F8029B00221A701CB05DF804EBDF
:400C800003B070473481FF1F2DE9F0478E6882469E420C46914698463ED88A8912F4906F3AD02568096902236F1A656905EB450595FBF3F57B1C43449D4238BF1D465305F1
:400CC0000FD5294600F040FB064698B13A462169FFF7A2FFA38923F4906343F08003A38113E02A4600F08EFB064670B92169504600F0DEFA0C23CAF80030A3894FF0FF303C
:400D000043F04003A381BDE8F08726613E44266046466561ED1BA560464528BF464649463246206800F0A8FAA36800209B1BA36023681E442660BDE8F08700002DE9F04F28
:400D40009DB003938B8980461C060D4616460DD50B695BB9402100F0F7FA2860286118B90C23C8F80030CDE040236B610023099320238DF82930DFF89CB130238DF82A3026
:400D800037463C4614F8013B1BB9B7EB060910D003E0252BF9D02746F3E74B46324629464046FFF771FF013000F0A780099B4B4409933B78002B00F0A08000234FF0FF3248
:400DC00004930793059206938DF853301A930126052221784E4800F041FA671C049B38B14B4A3C46801A06FA00F018430490EFE7D90644BF20228DF853201A0744BF2B2237
:400E00008DF8532022782A2A03D0079A00210A200BE0039A111D12680391002A10DA524243F00200079204900BE027463B780134303B092B03D800FB02320121F5E701B1A6
:400E400007923B782E2B1ED17B782A2B0AD1039B02371A1D1B680392002BB8BF4FF0FF33059310E0002319460593781C0A2407463A780130303A092A03D804FB0121012331
:400E8000F5E703B1059103223978224800F0E6F940B14023CBEB000003FA00F0049B013718430490397806221B487E1C8DF8281000F0D4F988B1194B33B9039B073323F07C
:400EC00007030833039314E003AB00932A46144B04A94046AFF3008007E003AB00932A460F4B04A9404600F093F8B0F1FF3F824603D0099B5344099342E7AB895B0601D43A
:400F0000099801E04FF0FF301DB0BDE8F08F00BF7C150000821500008615000000000000890C00002DE9F04791461F460A698B6806469342B8BF1346C9F8003091F84320FC
:400F40000C46DDF8208012B10133C9F800302368990642BFD9F800300233C9F80030256815F0060510D104F1190A07E00123524639463046C04701301AD00135E368D9F8CE
:400F800000209B1A9D42F1DB94F843302268003318BF012392060FD5E118302081F843005A1C94F845102244023382F8431003E04FF0FF30BDE8F08704F14302394630461E
:400FC000C0470130F4D02268D9F80050E36802F00602042A08BF5D1B2269A3680CBF25EAE57500259342C4BF9B1AED184FF000091A344D4509D00123224639463046C0470E
:401000000130D5D009F10109F3E70020BDE8F0872DE9F04317460A7E85B06E2A984606460C460C9B01F1430E00F0AE8011D8632A22D009D8002A00F0BB80582A40F0CA80A7
:4010400081F84520834955E0642A1ED0692A1CD0C0E0732A00F0B08009D86F2A2ED0702A40F0B8800A6842F020020A603EE0752A24D0782A3AD0ADE01A6801F14205111DBC
:401080001960136884F84230A8E021681A6811F0800F02D0111D196008E011F0400F02F10401196002D0B2F9003000E01368002B3CDA2D225B4284F8432037E021681A68D3
:4010C00011F0800F02D0111D196007E011F0400F02F10401196001D0138800E01368227E5C496F2A14BF0A2208221BE078225A4984F845202268186812F0800F00F10405C3
:401100001D6003D1550601D5038800E00368D00744BF42F0200222601BB9226822F0200222601022002084F8430001E049490A226568002DA56008DB206820F004002060E5
:401140002BB9002D7DD175460CE0002B79D07546B3FBF2F002FB1033CB5C05F8013D03460028F5D1082A0BD12368DA0708D5236962689A42DEBF302305F8013C05F1FF35F4
:40118000C5EB0E0323612EE008681A6810F0800F496903D0101D1860136808E010F0400F02F104001860136801D0198000E0196000232361754616E01A68111D19601568D4
:4011C00000216268284600F049F808B1401B6060636804E004F1420584F8422001232361002384F84330CDF800803B4603AA21463046FFF797FE013002D14FF0FF3026E0BB
:4012000023692A4639463046C0470130F5D023689B0710D5002504F1190907E001234A4639463046C0470130E7D00135E368039A9B1A9D42F2DBE068039B9842B8BF1846DF
:4012400005E00B7804F1420584F842308AE705B0BDE8F0838D1500009E15000010B5C9B202449042034605D01C7801308C42F8D1184610BD002010BD884210B501EB0203DF
:4012800001D8421E0BE09842FBD28118D21AD34204D013F8014D01F8014DF8E710BD994204D011F8014B02F8014FF8E710BD000038B50546002944D051F8043C0C1F002B5B
:4012C000B8BFE41800F0D4F81E4A1368114613B96360146030E0A3420DD92268A018834201BF18685B681218226063600C6023E0A24203D813465A68002AF9D11868191840
:40130000A1420BD12168014458188242196013D110685268014419605A600DE002D90C232B6009E021686018824201BF106852680918216062605C602846BDE8384000F028
:4013400098B838BDE081FF1F70B5CD1C25F0030508350C2D38BF0C25002D064601DBA94202D90C23336046E000F082F8234B1C681A462146A1B10B685B1B0ED40B2B03D98B
:401380000B60CC18CD501EE08C420BBF63684B681360636018BF0C4615E00C464968E9E7174C23681BB9304600F052F820602946304600F04DF8431C18D0C41C24F0030438
:4013C000A0420DD12560304600F053F804F10B00231D20F00700C31A0ED05A42E25070BD211A304600F034F80130EBD10C233360304600F03EF8002070BD00BFE081FF1F47
:40140000DC81FF1FF8B5074615460E4621B91146BDE8F840FFF798BF1AB9FFF749FF2846F8BD00F027F885420ED929463846FFF78BFF044650B131462A46FFF7EDFB314648
:401440003846FFF735FF01E03046F8BD2046F8BD38B5064C0023054608462360FFF7C4F8431C02D1236803B12B6038BDE481FF1F7047704751F8040C0028BEBF091851F823
:40148000043CC01804387047000000004D505332315F5072616B745F332C2046726565536F43322C2050536F4320354C502C207665722E20312E300A0D53656261737469EC
:4014C000616E205A696C6C202854656D706C617465204D50532033292C204E6F7620323420323032312031383A34383A303900000A0D57656C636F6D65212025730A0D00C3
:401500004D656E752D426569737069656C3A20546173746520276D2720676564727565636B740A0D0000000054696D65207061737365643A202564207365632E0D000000E9
:4015400000510040100030510040300000000140800C000D0140000300140140000800400140000A004C01400002005001402000800C01407803004880004300232D302B95
:401580002000686C4C00656667454647003031323334353637383941424344454600303132333435363738396162636465660000F8B500BFF8BC08BC9E4670474D00000017
:4015C000D1060000F8B500BFF8BC08BC9E46704729000000E8150000C880FF1F70000000B0000000000000000000000001000000E881FF1F00000000000000000000000061
:4016000000000000000000000000000000000000000000007A150000000000000000000000000000000000000000000000000000000000000000000000000000000000001B
:401640000000000000000000000000000000000000000000D480FF1F00000000000000000000000000000000000000000000000000000000000000000000000000000000F8
:40168000000000000000000000000000000000000000000000000000000000000000000000000000000000000000000000000000000000000000000000000000000000002A
:4016C00000000000000000000000000000000000000000000000000000000000000000000000000000000000000000000000000000000000000000000000000000000000EA
:4017000000000000000000000000000000000000000000000000000000000000000000000000000000000000000000000000000000000000000000000000000000000000A9
:401740000000000000000000000000000000000000000000000000000000000000000000000000000000000000000000000000000000000000000000000000000000000069
:020000040003F7
:0200000480007A
:4000000001450040035200400364004001010140600A0140450B0140160C01403F0D0140480E01402E0F01400540014001410140014201400143014009450140034601404F
:400040000348014001490140035001400151014035021002110214018A728B0F8E38E204022005400B080D400E0314101640180C19401A711C101D201EAC1F032009211185
:4000800022D023062414250C271328DC29112A222B0E2F0C301F334034E0350F373039803A203B204003464049FF4A074BFF4C404D204EF04F05500856025712580459048C
:4000C0005A045B045F01604061A862406320825588738A0498039A449C739E0CA101A208A82AAA44B040B230B501B60FB808B902BA80BE05BF10C041C106C50CC6BEC80DF1
:40010000C9FFCAFFCBFFCEF0CF44D00CD401D804D904DA04DB04DC10DF01E6C0EA40EB02004001020512074008400A080B200C400E020F0412D415201644184019101A0836
:400140001E522110228826022708284029102A442D012F803210334039443B20421843204440474049024E044F045310561057805B045D215E405F086520670469446A24FF
:4001800070887208944096249B04A488A60AA720AA40B002B308C059C2C7C45ECA8FCC0CCE0ED092D220D6F2EC0103020501060109010E07150116011A031F022D013001D1
:4001C00032023404350137023A2A3B083F50580459045C015F01002001800360072208060B040E1810401209130819A11B401E582024210122802308258427142A082B483B
:400200002D80308C3360348036803708380439023BA03C203D083E083F054090431049804A084B21500288108B40901092809440967498409A019B229C029D21A402A58056
:40024000A606B102C0AFC26EC40FCA17CC5ECEEFD007D20C004402310D02102212511301146718671C011E0E2B01306032183501360737023E043F505418560458045904BC
:400280005B045F01800A82748311840E8670879189208A1E8B858F02900391089204930794049540967A978599119A7E9B849E0E9F95A001A27CA60EA795AA5EAB95AC047C
:4002C000AD11AE0AAF84B007B103B228B378B448B505B618B780BAAABB2EBF40D804D904DC11DF01010205100680072008420A250D020E1A1510174A181019021A011D5290
:400300001E021F142240230424042541276829222A012D102EC02F14300235403606372238403C043D823E105901618063848340C078C2FFC4F0CA74CCF1CEF8D601D80DD0
:40034000322035808180CC30E220A620A620A620000852105C109A10B210C008D404D604EC04A810B004EA042201A620C840AE2100030C030E03000F08000004043C00429F
:400380000F007063731C0C61110000000C1800007F08000000100000336700180C7F7300000433802200000030800058401F0F3820008028000000005602040003C000E095
:4003C00022FFFFFF62A0F0410C000000000000000404040000000001000000000000400200103010001010120000000000000000000000000000000030000030300000003E
:40040000000000000030300000000000000B0B0000000000FE0001FEFE000600000000003F00003F1C000000000000000000000000000000000000000000000000000000AB
:40044000000000000000000000000000000000000000000000000000000000000000000000000000000000000000000000000000000000000000000000000000000000007C
:40048000000000000000000000000000000000000000000000000000000000000000000000000000000000000000000000000000000000000000000000000000000000003C
:4004C00000000000000000000000000000000000000000000000000000000000000000000000000000000000000000000000000000000000000000000000000000000000FC
:4005000000000000000000000000000000000000000000000000000000000000000000000000000000000000000000000000000000000000000000000000000000000000BB
:0200000490006A
:0400000000004005B7
:0200000490105A
:04000000BC90ACAF55
:0200000490303A
:020000003E744C
:0200000490402A
:4000000000000000000000000000000000000000000000000000000000000000000000000000000000000000000000000000000000000000000000000000000000000000C0
:400040000000000000000000000000000000000000000000000000000000000000000000000000000000000000000000000000000000000000000000000000000000000080
:400080000000000000000000000000000000000000000000000000000000000000000000000000000000000000000000000000000000000000000000000000000000000040
:4000C0000000000000000000000000000000000000000000000000000000000000000000000000000000000000000000000000000000000000000000000000000000000000
:0200000490501A
:0C00000000012E16006900012E1F3EDDDD
:00000001FF